{
  "_format": "hh-sol-artifact-1",
  "contractName": "Game",
  "sourceName": "contracts/game.sol",
  "abi": [
    {
      "inputs": [],
      "stateMutability": "nonpayable",
      "type": "constructor"
    },
    {
      "anonymous": false,
      "inputs": [
        {
          "indexed": true,
          "internalType": "address",
          "name": "degenerate",
          "type": "address"
        },
        {
          "indexed": false,
          "internalType": "uint256",
          "name": "bet",
          "type": "uint256"
        }
      ],
      "name": "depositEvent",
      "type": "event"
    },
    {
      "anonymous": false,
      "inputs": [
        {
          "indexed": true,
          "internalType": "address",
          "name": "contractOwner",
          "type": "address"
        },
        {
          "indexed": false,
          "internalType": "uint256",
          "name": "balance",
          "type": "uint256"
        }
      ],
      "name": "withdrawFundsEvent",
      "type": "event"
    },
    {
      "inputs": [
        {
          "internalType": "uint256",
          "name": "_bet",
          "type": "uint256"
        }
      ],
      "name": "deposit",
      "outputs": [],
      "stateMutability": "payable",
      "type": "function"
    },
    {
      "inputs": [],
      "name": "getViewBalance",
      "outputs": [
        {
          "internalType": "uint256",
          "name": "",
          "type": "uint256"
        }
      ],
      "stateMutability": "view",
      "type": "function"
    },
    {
      "inputs": [
        {
          "internalType": "address",
          "name": "",
          "type": "address"
        }
      ],
      "name": "players",
      "outputs": [
        {
          "internalType": "uint256",
          "name": "bet",
          "type": "uint256"
        }
      ],
      "stateMutability": "view",
      "type": "function"
    },
    {
      "inputs": [],
      "name": "withdrawFunds",
      "outputs": [],
      "stateMutability": "payable",
      "type": "function"
    }
  ],
  "bytecode": "0x608060405234801561001057600080fd5b50336000806101000a81548173ffffffffffffffffffffffffffffffffffffffff021916908373ffffffffffffffffffffffffffffffffffffffff1602179055506105d9806100606000396000f3fe60806040526004361061003f5760003560e01c806324600fc314610044578063274aafcb1461004e578063b6b55f2514610079578063e2eb41ff14610095575b600080fd5b61004c6100d2565b005b34801561005a57600080fd5b506100636101f7565b6040516100709190610431565b60405180910390f35b610093600480360381019061008e919061036f565b6101ff565b005b3480156100a157600080fd5b506100bc60048036038101906100b79190610342565b6102fa565b6040516100c99190610431565b60405180910390f35b60008054906101000a900473ffffffffffffffffffffffffffffffffffffffff1673ffffffffffffffffffffffffffffffffffffffff163373ffffffffffffffffffffffffffffffffffffffff1614610160576040517f08c379a0000000000000000000000000000000000000000000000000000000008152600401610157906103f1565b60405180910390fd5b3373ffffffffffffffffffffffffffffffffffffffff166108fc479081150290604051600060405180830381858888f193505050501580156101a6573d6000803e3d6000fd5b503373ffffffffffffffffffffffffffffffffffffffff167f210df966723fefbc063952a02a64958b203133efc2969932939f705c5a259c20476040516101ed9190610431565b60405180910390a2565b600047905090565b670de0b6b3a76400008111610249576040517f08c379a000000000000000000000000000000000000000000000000000000000815260040161024090610411565b60405180910390fd5b3460018190555080600260003373ffffffffffffffffffffffffffffffffffffffff1673ffffffffffffffffffffffffffffffffffffffff16815260200190815260200160002060000160008282546102a2919061045d565b925050819055503373ffffffffffffffffffffffffffffffffffffffff167f47170ad76c9bbdb15dfbafd993321119023982de922af38d00684afaac15b8ea826040516102ef9190610431565b60405180910390a250565b60026020528060005260406000206000915090508060000154905081565b60008135905061032781610575565b92915050565b60008135905061033c8161058c565b92915050565b6000602082840312156103585761035761051e565b5b600061036684828501610318565b91505092915050565b6000602082840312156103855761038461051e565b5b60006103938482850161032d565b91505092915050565b60006103a960138361044c565b91506103b482610523565b602082019050919050565b60006103cc60088361044c565b91506103d78261054c565b602082019050919050565b6103eb816104e5565b82525050565b6000602082019050818103600083015261040a8161039c565b9050919050565b6000602082019050818103600083015261042a816103bf565b9050919050565b600060208201905061044660008301846103e2565b92915050565b600082825260208201905092915050565b6000610468826104e5565b9150610473836104e5565b9250827fffffffffffffffffffffffffffffffffffffffffffffffffffffffffffffffff038211156104a8576104a76104ef565b5b828201905092915050565b60006104be826104c5565b9050919050565b600073ffffffffffffffffffffffffffffffffffffffff82169050919050565b6000819050919050565b7f4e487b7100000000000000000000000000000000000000000000000000000000600052601160045260246000fd5b600080fd5b7f43616c6c6572206973206e6f74206f776e657200000000000000000000000000600082015250565b7f706179206d6f7265000000000000000000000000000000000000000000000000600082015250565b61057e816104b3565b811461058957600080fd5b50565b610595816104e5565b81146105a057600080fd5b5056fea264697066735822122006135933fc1627b788a0195415fc955dc323f8ac62f7f5d93d25201e950293e064736f6c63430008060033",
  "linkReferences": {},
  "deployedLinkReferences": {}
}