{
  "_format": "hh-sol-artifact-1",
  "contractName": "Game",
  "sourceName": "contracts/game.sol",
  "abi": [
    {
      "inputs": [],
      "stateMutability": "nonpayable",
      "type": "constructor"
    },
    {
      "anonymous": false,
      "inputs": [
        {
          "indexed": false,
          "internalType": "address",
          "name": "degenerate",
          "type": "address"
        },
        {
          "indexed": false,
          "internalType": "uint256",
          "name": "bet",
          "type": "uint256"
        }
      ],
      "name": "depositEvent",
      "type": "event"
    },
    {
      "anonymous": false,
      "inputs": [
        {
          "indexed": false,
          "internalType": "address",
          "name": "contractOwner",
          "type": "address"
        },
        {
          "indexed": false,
          "internalType": "uint256",
          "name": "balance",
          "type": "uint256"
        }
      ],
      "name": "withdrawFundsEvent",
      "type": "event"
    },
    {
      "inputs": [
        {
          "internalType": "uint256",
          "name": "_bet",
          "type": "uint256"
        }
      ],
      "name": "deposit",
      "outputs": [],
      "stateMutability": "payable",
      "type": "function"
    },
    {
      "inputs": [],
      "name": "getViewBalance",
      "outputs": [
        {
          "internalType": "uint256",
          "name": "",
          "type": "uint256"
        }
      ],
      "stateMutability": "view",
      "type": "function"
    },
    {
      "inputs": [
        {
          "internalType": "address",
          "name": "",
          "type": "address"
        }
      ],
      "name": "players",
      "outputs": [
        {
          "internalType": "uint256",
          "name": "bet",
          "type": "uint256"
        }
      ],
      "stateMutability": "view",
      "type": "function"
    },
    {
      "inputs": [],
      "name": "withdrawFunds",
      "outputs": [],
      "stateMutability": "payable",
      "type": "function"
    }
  ],
  "bytecode": "0x608060405234801561001057600080fd5b50336000806101000a81548173ffffffffffffffffffffffffffffffffffffffff021916908373ffffffffffffffffffffffffffffffffffffffff1602179055506105e7806100606000396000f3fe60806040526004361061003f5760003560e01c806324600fc314610044578063274aafcb1461004e578063b6b55f2514610079578063e2eb41ff14610095575b600080fd5b61004c6100d2565b005b34801561005a57600080fd5b506100636101e2565b604051610070919061043f565b60405180910390f35b610093600480360381019061008e9190610345565b6101ea565b005b3480156100a157600080fd5b506100bc60048036038101906100b79190610318565b6102d0565b6040516100c9919061043f565b60405180910390f35b60008054906101000a900473ffffffffffffffffffffffffffffffffffffffff1673ffffffffffffffffffffffffffffffffffffffff163373ffffffffffffffffffffffffffffffffffffffff1614610160576040517f08c379a0000000000000000000000000000000000000000000000000000000008152600401610157906103ff565b60405180910390fd5b3373ffffffffffffffffffffffffffffffffffffffff166108fc479081150290604051600060405180830381858888f193505050501580156101a6573d6000803e3d6000fd5b507f210df966723fefbc063952a02a64958b203133efc2969932939f705c5a259c2033476040516101d89291906103d6565b60405180910390a1565b600047905090565b670de0b6b3a76400008111610234576040517f08c379a000000000000000000000000000000000000000000000000000000000815260040161022b9061041f565b60405180910390fd5b3460018190555080600260003373ffffffffffffffffffffffffffffffffffffffff1673ffffffffffffffffffffffffffffffffffffffff168152602001908152602001600020600001600082825461028d919061046b565b925050819055507f47170ad76c9bbdb15dfbafd993321119023982de922af38d00684afaac15b8ea33826040516102c59291906103d6565b60405180910390a150565b60026020528060005260406000206000915090508060000154905081565b6000813590506102fd81610583565b92915050565b6000813590506103128161059a565b92915050565b60006020828403121561032e5761032d61052c565b5b600061033c848285016102ee565b91505092915050565b60006020828403121561035b5761035a61052c565b5b600061036984828501610303565b91505092915050565b61037b816104c1565b82525050565b600061038e60138361045a565b915061039982610531565b602082019050919050565b60006103b160088361045a565b91506103bc8261055a565b602082019050919050565b6103d0816104f3565b82525050565b60006040820190506103eb6000830185610372565b6103f860208301846103c7565b9392505050565b6000602082019050818103600083015261041881610381565b9050919050565b60006020820190508181036000830152610438816103a4565b9050919050565b600060208201905061045460008301846103c7565b92915050565b600082825260208201905092915050565b6000610476826104f3565b9150610481836104f3565b9250827fffffffffffffffffffffffffffffffffffffffffffffffffffffffffffffffff038211156104b6576104b56104fd565b5b828201905092915050565b60006104cc826104d3565b9050919050565b600073ffffffffffffffffffffffffffffffffffffffff82169050919050565b6000819050919050565b7f4e487b7100000000000000000000000000000000000000000000000000000000600052601160045260246000fd5b600080fd5b7f43616c6c6572206973206e6f74206f776e657200000000000000000000000000600082015250565b7f706179206d6f7265000000000000000000000000000000000000000000000000600082015250565b61058c816104c1565b811461059757600080fd5b50565b6105a3816104f3565b81146105ae57600080fd5b5056fea2646970667358221220645c5eeb9e31615cf8c00b0144e9de5b3a7fb28bc78f952cb2787746bf6d1aed64736f6c63430008060033",
  "linkReferences": {},
  "deployedLinkReferences": {}
}