{
  "_format": "hh-sol-artifact-1",
  "contractName": "Blackhole",
  "sourceName": "contracts/newgame.sol",
  "abi": [
    {
      "inputs": [],
      "stateMutability": "nonpayable",
      "type": "constructor"
    },
    {
      "anonymous": false,
      "inputs": [
        {
          "indexed": false,
          "internalType": "uint256",
          "name": "amount",
          "type": "uint256"
        },
        {
          "indexed": false,
          "internalType": "address",
          "name": "newLeader",
          "type": "address"
        }
      ],
      "name": "NewBet",
      "type": "event"
    },
    {
      "anonymous": false,
      "inputs": [
        {
          "indexed": false,
          "internalType": "uint256",
          "name": "amount",
          "type": "uint256"
        },
        {
          "indexed": false,
          "internalType": "address",
          "name": "creator",
          "type": "address"
        }
      ],
      "name": "NewGameStarted",
      "type": "event"
    },
    {
      "anonymous": false,
      "inputs": [
        {
          "indexed": false,
          "internalType": "uint256",
          "name": "amount",
          "type": "uint256"
        },
        {
          "indexed": false,
          "internalType": "address",
          "name": "winner",
          "type": "address"
        }
      ],
      "name": "Winrar",
      "type": "event"
    },
    {
      "inputs": [],
      "name": "bet",
      "outputs": [],
      "stateMutability": "payable",
      "type": "function"
    },
    {
      "inputs": [],
      "name": "currentBet",
      "outputs": [
        {
          "internalType": "uint256",
          "name": "",
          "type": "uint256"
        }
      ],
      "stateMutability": "view",
      "type": "function"
    },
    {
      "inputs": [],
      "name": "currentGame",
      "outputs": [
        {
          "internalType": "bool",
          "name": "",
          "type": "bool"
        }
      ],
      "stateMutability": "view",
      "type": "function"
    },
    {
      "inputs": [],
      "name": "currentLeader",
      "outputs": [
        {
          "internalType": "address",
          "name": "",
          "type": "address"
        }
      ],
      "stateMutability": "view",
      "type": "function"
    },
    {
      "inputs": [],
      "name": "feeTo",
      "outputs": [
        {
          "internalType": "address",
          "name": "",
          "type": "address"
        }
      ],
      "stateMutability": "view",
      "type": "function"
    },
    {
      "inputs": [],
      "name": "lastBet",
      "outputs": [
        {
          "internalType": "uint256",
          "name": "",
          "type": "uint256"
        }
      ],
      "stateMutability": "view",
      "type": "function"
    },
    {
      "inputs": [],
      "name": "nextMinimumBet",
      "outputs": [
        {
          "internalType": "uint256",
          "name": "",
          "type": "uint256"
        }
      ],
      "stateMutability": "view",
      "type": "function"
    },
    {
      "inputs": [],
      "name": "previousWinner",
      "outputs": [
        {
          "internalType": "address",
          "name": "",
          "type": "address"
        }
      ],
      "stateMutability": "view",
      "type": "function"
    },
    {
      "inputs": [
        {
          "internalType": "address",
          "name": "destination",
          "type": "address"
        }
      ],
      "name": "setFeeTo",
      "outputs": [],
      "stateMutability": "nonpayable",
      "type": "function"
    },
    {
      "inputs": [],
      "name": "win",
      "outputs": [],
      "stateMutability": "nonpayable",
      "type": "function"
    }
  ],
  "bytecode": "0x608060405234801561001057600080fd5b50336000806101000a81548173ffffffffffffffffffffffffffffffffffffffff021916908373ffffffffffffffffffffffffffffffffffffffff16021790555033600160006101000a81548173ffffffffffffffffffffffffffffffffffffffff021916908373ffffffffffffffffffffffffffffffffffffffff160217905550610b1e806100a16000396000f3fe6080604052600436106100915760003560e01c80637801f842116100595780637801f842146101385780638159711814610163578063ac4bd53a1461018e578063d504cb65146101b9578063f46901ed146101e457610091565b8063017e7e581461009657806311610c25146100c1578063473ca96c146100cb5780635c6059ee146100e257806360b663bb1461010d575b600080fd5b3480156100a257600080fd5b506100ab61020d565b6040516100b89190610813565b60405180910390f35b6100c9610233565b005b3480156100d757600080fd5b506100e06103eb565b005b3480156100ee57600080fd5b506100f76105be565b6040516101049190610813565b60405180910390f35b34801561011957600080fd5b506101226105e2565b60405161012f919061082e565b60405180910390f35b34801561014457600080fd5b5061014d6105f5565b60405161015a91906108a9565b60405180910390f35b34801561016f57600080fd5b506101786105fb565b60405161018591906108a9565b60405180910390f35b34801561019a57600080fd5b506101a361063d565b6040516101b09190610813565b60405180910390f35b3480156101c557600080fd5b506101ce610663565b6040516101db91906108a9565b60405180910390f35b3480156101f057600080fd5b5061020b60048036038101906102069190610750565b610669565b005b600160009054906101000a900473ffffffffffffffffffffffffffffffffffffffff1681565b61023b6105fb565b34101561027d576040517f08c379a000000000000000000000000000000000000000000000000000000000815260040161027490610869565b60405180910390fd5b600560009054906101000a900460ff166102ea576001600560006101000a81548160ff0219169083151502179055507f1e2e229605249d9f7a3c20e60535a92ea751e8e7fa6b128a72c9495727e7f92d34336040516102dd9291906108c4565b60405180910390a1610361565b600160009054906101000a900473ffffffffffffffffffffffffffffffffffffffff1673ffffffffffffffffffffffffffffffffffffffff166108fc6103e8346103349190610954565b9081150290604051600060405180830381858888f1935050505015801561035f573d6000803e3d6000fd5b505b346003819055504260048190555033600260006101000a81548173ffffffffffffffffffffffffffffffffffffffff021916908373ffffffffffffffffffffffffffffffffffffffff1602179055507f189ba8d04ab0c61f5498ae9bd2b2295cd60d6fc895cac86feeb1ee28d1b782d234336040516103e19291906108c4565b60405180910390a1565b6202a3006004546103fc91906108fe565b42101561043e576040517f08c379a000000000000000000000000000000000000000000000000000000000815260040161043590610849565b60405180910390fd5b600260009054906101000a900473ffffffffffffffffffffffffffffffffffffffff1673ffffffffffffffffffffffffffffffffffffffff163373ffffffffffffffffffffffffffffffffffffffff161461049857600080fd5b7f92bba05f468e20892603ae1a108c6516b3f0d4884204c513d01527989868acd547336040516104c99291906108c4565b60405180910390a13373ffffffffffffffffffffffffffffffffffffffff166108fc479081150290604051600060405180830381858888f19350505050158015610517573d6000803e3d6000fd5b506000600560006101000a81548160ff0219169083151502179055506000600381905550336000806101000a81548173ffffffffffffffffffffffffffffffffffffffff021916908373ffffffffffffffffffffffffffffffffffffffff16021790555033600160006101000a81548173ffffffffffffffffffffffffffffffffffffffff021916908373ffffffffffffffffffffffffffffffffffffffff160217905550565b60008054906101000a900473ffffffffffffffffffffffffffffffffffffffff1681565b600560009054906101000a900460ff1681565b60045481565b6000600560009054906101000a900460ff161561063557600354600a6003546106249190610954565b61062e91906108fe565b905061063a565b606490505b90565b600260009054906101000a900473ffffffffffffffffffffffffffffffffffffffff1681565b60035481565b60008054906101000a900473ffffffffffffffffffffffffffffffffffffffff1673ffffffffffffffffffffffffffffffffffffffff163373ffffffffffffffffffffffffffffffffffffffff16146106f7576040517f08c379a00000000000000000000000000000000000000000000000000000000081526004016106ee90610889565b60405180910390fd5b80600160006101000a81548173ffffffffffffffffffffffffffffffffffffffff021916908373ffffffffffffffffffffffffffffffffffffffff16021790555050565b60008135905061074a81610ad1565b92915050565b60006020828403121561076657610765610a2b565b5b60006107748482850161073b565b91505092915050565b61078681610985565b82525050565b61079581610997565b82525050565b60006107a86026836108ed565b91506107b382610a30565b604082019050919050565b60006107cb6008836108ed565b91506107d682610a7f565b602082019050919050565b60006107ee601e836108ed565b91506107f982610aa8565b602082019050919050565b61080d816109c3565b82525050565b6000602082019050610828600083018461077d565b92915050565b6000602082019050610843600083018461078c565b92915050565b600060208201905081810360008301526108628161079b565b9050919050565b60006020820190508181036000830152610882816107be565b9050919050565b600060208201905081810360008301526108a2816107e1565b9050919050565b60006020820190506108be6000830184610804565b92915050565b60006040820190506108d96000830185610804565b6108e6602083018461077d565b9392505050565b600082825260208201905092915050565b6000610909826109c3565b9150610914836109c3565b9250827fffffffffffffffffffffffffffffffffffffffffffffffffffffffffffffffff03821115610949576109486109cd565b5b828201905092915050565b600061095f826109c3565b915061096a836109c3565b92508261097a576109796109fc565b5b828204905092915050565b6000610990826109a3565b9050919050565b60008115159050919050565b600073ffffffffffffffffffffffffffffffffffffffff82169050919050565b6000819050919050565b7f4e487b7100000000000000000000000000000000000000000000000000000000600052601160045260246000fd5b7f4e487b7100000000000000000000000000000000000000000000000000000000600052601260045260246000fd5b600080fd5b7f6d757374206265206c656164657220666f7220343820686f75727320746f206360008201527f6f6c6c6563740000000000000000000000000000000000000000000000000000602082015250565b7f626574206d6f7265000000000000000000000000000000000000000000000000600082015250565b7f596f75206172656e2774207468652070726576696f75732077696e6e65720000600082015250565b610ada81610985565b8114610ae557600080fd5b5056fea2646970667358221220d1a3ac45157bc19a3d8e2e45bcc0e5ca29c0e8cd46ee3f88bf7b3fb6c85a7b6764736f6c63430008060033",
  "linkReferences": {},
  "deployedLinkReferences": {}
}